:020000041000EA
:1000000000B5324B212058609868022188439860DF
:10001000D860186158612E4B002199600221596106
:100020000121F02299502B49196001219960352056
:1000300000F044F80222904214D00621196600F024
:1000400034F8196E01211966002018661A6600F04E
:100050002CF8196E196E196E052000F02FF8012189
:100060000842F9D1002199601B49196000215960AB
:100070001A491B48016001219960EB211966A021F2
:10008000196600F012F800219960164914480160C1
:100090000121996001BC002800D000471248134993
:1000A000086003C880F30888084703B5996A0420EC
:1000B0000142FBD001200142F8D103BD02B5186610
:1000C0001866FFF7F2FF186E186E02BD00000240BE
:1000D000000000180000070000035F00212200005C
:1000E000F4000018222000A00001001008ED00E03C
:1000F00000000000000000000000000074B24E7A12
:1001000000200420F7010010C3010010C5010010F9
:10011000C1010010C1010010C1010010C101001097
:10012000C1010010C1010010C1010010C701001081
:10013000C1010010C1010010C9010010CB01001065
:10014000CD010010CD010010CD010010CD01001037
:10015000CD010010CD010010CD010010CD01001027
:10016000CD010010CD010010CD010010CD01001017
:10017000CD010010CD010010CD010010CD01001007
:10018000CD010010CD010010CD010010CD010010F7
:10019000CD010010CD010010CD010010CD010010E7
:1001A000CD010010CD010010CD010010CD010010D7
:1001B000CD010010CD010010CD010010CD010010C7
:1001C00000BE00BE00BE00BE00BE00BE00F04BF888
:1001D000103800BEF2EB88714853001064530010D1
:1001E0003402001090A31AE700202149086006C8D5
:1001F00081F3088810471F48006800282FD10DA4FC
:100200000ECC002902D000F012F8F9E71A491B4A77
:10021000002000E001C19142FCD1194988471949E9
:1002200088471949884700BEFDE701C901C29A42C3
:10023000FBD3704764530010C00000201C03002053
:10024000C05500100000042000000420C05500101C
:1002500000100420001004200000000070470B482C
:1002600002F0CEFF0047EFF30580C0B270470000F8
:1002700008ED00E0000000D0200300200807002067
:100280002D180010610400100919001057560000C5
:1002900006005250ABB360531C530010060052507E
:1002A000861C03022C530010060052505422A29DBB
:1002B0003853001005005250DE65F468C055001038
:1002C000F8B5C046054B0648033310B51B1A062B7C
:1002D00003D9044B002B00D0984710BD1C0300200D
:1002E0001C030020000000000648074910B5091A49
:1002F0008910CB0F5918491003D0044B002B00D0A4
:10030000984710BD1C0300201C03002000000000C3
:1003100010B5074C2378002B09D1FFF7D3FF054B0D
:10032000002B02D0044800E000BF0123237010BD61
:10033000200400200000000040450010094B10B5CB
:10034000002B03D00849094800E000BF08480368B3
:10035000002B02D1FFF7C8FF10BD064B002BF9D0D0
:100360009847F7E7000000002404002040450010F3
:100370001C0300200000000010B5006803F096FE8A
:10038000064A074B03F001FA064A074B03F0D6F979
:1003900003F0B4FA03F082FE80B210BD865AD3BCDB
:1003A000E3342240333333333333A34070B58AB060
:1003B00004AB03AA02A9224800F028F9002803D1BF
:1003C0001F49204801F0C2FA049A0399029800F0EC
:1003D000E1F804AB00220492103205921A4A069208
:1003E00007AA110031CB31C1184B0893184B1B8859
:1003F0000993002420E0174D285D042100F05EF9E8
:100400002B5D5B0807221340134A1355134D9900C7
:10041000C818820000205051AC4662449060D06001
:1004200009980190106108985060012207980243D2
:10043000CB1899004A510134052CDCDD0AB070BD9F
:1004400048E8010040450010FFFF0000C404000020
:100450005E02002058020020E80400200000054051
:10046000F8B5FFF7A3FF002304E099003F48404A96
:1004700088500133042BF8DD002575E000214CE0A5
:100480003C4A4EE03C4B1E5DA3003948C018FFF7C4
:1004900073FF730807210B40012232409900C918ED
:1004A0008B0036498C466344002A54D01021884082
:1004B000002A52D0324A1968484010408022520126
:1004C000134318602A4EA700B85903F0EFFD2D4AD8
:1004D0002D4B03F02AF903F011FAB8512B4903F020
:1004E000D5FD00283BD10134042C3ADC002DC9D1C4
:1004F000214B1E5DA3001E48C018FFF73DFF730887
:1005000007210B40012232409900C9188B001B497A
:100510008C466344002AB1D010218840002AAFD015
:10052000174A19684840104080225201134318604E
:100530000F4EA700B85903F0B9FD124A124B03F051
:10054000FDF803F0DBF9B851114903F09FFD0028D5
:10055000C9D00125C7E70021A9E7064AABE7002576
:10056000C1E7012000F0E4FD0024BDE7CDCCB3C21B
:10057000CC040020FFFF0000580200200C000540C2
:100580000000FFFF9A9999999999B93F0000B4C268
:100590000000B442F0B583B005000E00140000F076
:1005A000D5F8002801D003B0F0BD154F00973B00EF
:1005B00001220121053001F0E1F9009433002A0005
:1005C0000121104801F0F8FC21007143280002F0DD
:1005D0006BFE04000C4B009300220221042001F06A
:1005E000CDF90094230000220121052001F0C6F975
:1005F00000973B0002220021062001F0BFF9D2E75C
:10060000006CDC0200800240001BB700F0B5DE4643
:1006100057464E464546E0B583B006008B469046A9
:100620000193042001F0AAFAFA21890002F03CFEAD
:100630008246A0235B0099462BE0013C002C1FD092
:1006400025007D432900009802F02EFEB042F4D12F
:100650002900009802F028FE0029EED1FA239B0021
:10066000009E5E435B461E6043461F60019B1C600C
:10067000012003B03CBC90469946A246AB46F0BD73
:10068000013F002F01D03C00D8E701235B429C468C
:10069000E1444B460F2B0BD953464A465343009334
:1006A000044A9C466244044B9A42EED80727E8E786
:1006B0000020DEE780E5F9FF804F120010B58300CF
:1006C000084A944663441C6840226240C024144097
:1006D0008022520113431C60C000034B9C466044BF
:1006E000416010BD04C0014000400140EFF31080A4
:1006F00072B6034B1B68002BFBD0BFF35F8F7047B4
:100700002C0100D0BFF35F8F0022024B1A6080F3F0
:10071000108870472C0100D070B505000E00140041
:10072000FFF7E4FFF208AA181578072131400123EA
:100730008B402B4205D1DBB22B431370FFF7E2FF56
:1007400070BD3100200001F001F90000034B1B686F
:1007500002201840431E9841C0B2704700C00640B6
:10076000002307E0054A9A189200BFF35F8F00212B
:10077000116001331F2BF5D97047C046400000348B
:10078000054A1078431CDBB21370172B02D91022D4
:10079000014B1A707047C0466002002070B505001A
:1007A0000C00080000F014FD200000F0F9FD0849DD
:1007B000200000F039FDFFF7E3FF064B9C46604444
:1007C000800068602C75A400034BE55070BDC046E6
:1007D000E90A001040000034BC0400200A4B1A68EB
:1007E000EFF3108172B61368002BFCD0BFF35F8F5C
:1007F000054B1B68BFF35F8F00221A6081F31088DE
:1008000040BF002000217047E404002010B50029FB
:1008100022D003681B7B99421ED8174B9C4661442B
:10082000090183689C4661440C684968002A19D014
:1008300003681B7B9A4215D883680F48844662443C
:1008400012019A1810685368020001208B4201D8E7
:100850000ED00020C0B210BD084B094A3B21094808
:1008600001F056F8054B064A3B21064801F050F8C6
:10087000A242EFD8EDE7C046FFFFFF0F4847001048
:10088000CC4500104C48001010B500291FD0037B48
:1008900099421CD84B005B18033B0468A446634490
:1008A00000291AD0002A1ED0914222D0002A26D038
:1008B000047BA24223D80468500080180338201813
:1008C00081701978002920D041701A7010BD104B2A
:1008D000104A6921104801F01BF8104B104A703182
:1008E0000D4801F015F80F4B0D4A71210A4801F02F
:1008F0000FF80D4B0A4A7221074801F009F8044B22
:10090000044A6921044801F003F81A70DEE7C04682
:10091000A04700108C450010BC470010084800108C
:1009200098450010144800102048001070B50600CB
:100930000D001400002916D0002A01D1080013E090
:10094000806873689847002806D12A00210030008B
:10095000FFF79AFF200007E0220029003000FFF790
:1009600093FF280000E0100070BD000070B5CE4677
:1009700000B583B00500009201930AAB1C780BAB65
:100980001B789946002C28D003685A7B944214D0D7
:10099000002C0CD01A7B944209D81A6863001B19EA
:1009A000033BD3189B78002B08D0012306E0434B70
:1009B000434A6921434800F0ABFF0123002B06D1D5
:1009C000002C28D1200003B004BC914670BD3E4BE2
:1009D0003E4A65213E4800F09BFF03689C7B002C4B
:1009E000EED012D01A7B94420FD862001219033A4B
:1009F00019688C46624451789973002900D1D973E3
:100A00000023937053701370DAE72C4B2C4A692142
:100A10002C4800F07DFF002C39D02B681B7B9C42BA
:100A200035D82C4BE3181B01AA68944663440099FF
:100A3000019A19605A60089A9A60099ADA602E68D9
:100A4000002C2AD02FD0337B9C422CD863001B195A
:100A5000033B32689446634400229A705A701A70BD
:100A6000717B22003000FFF761FF70738442A9D1CF
:100A7000287D009A019B00F01FFC061E02D04B4609
:100A8000002B16D00C9B002B9CD01E709AE7124BAB
:100A9000124A3B210E4800F03BFF114B114AA621A0
:100AA000084800F035FF054B054A6921054800F06C
:100AB0002FFF2868210000F039FEE3E7A04700106F
:100AC0008C450010BC47001038460010044600104A
:100AD0004C480010FFFFFF0F48470010CC450010A6
:100AE00048480010AC450010F0B5D6464F46464683
:100AF000C0B58CB00B908200B54BD55837E10023C0
:100B00000024089309946A68EFF3108672B613689C
:100B1000002BFCD0BFF35F8F2F687C7B002C41D172
:100B200000239846002700206B68BFF35F8F0022E8
:100B30001A6086F31088002F00D116E153461E027A
:100B4000264341463000B847069007916A68EFF3A4
:100B5000108972B61368002BFCD0BFF35F8F079B20
:100B6000002B00DB89E02B69002B00D185E0B3422C
:100B700071D1089A099B08921E0006980799121ACB
:100B80008B419E4203D805D10899914202D9012296
:100B90005242D317002B64DA8E4B8F4A3D218F4887
:100BA00000F0B6FE002C1AD03A7B944217D88C4B3A
:100BB000E2181201AB689846904443461A685B6895
:100BC000121A8B411000002B0FDD43461A685B6838
:100BD0000B9800F071FB002398460027A4E7814B97
:100BE000814A3B21814800F093FE002B01D100286F
:100BF000EBD10021380000F08FFDA04219D143460F
:100C00001A685B680892099343469F68DB689846B8
:100C1000002F14D0002C18D02B681B7B9C4214D8BA
:100C2000631EEA68D35C9A461B02184328610020C1
:100C30007AE76F4B6F4A8C216C4800F069FE6E4B6F
:100C40006C4A9021694800F063FE664B6B4A402174
:100C5000664800F05DFE6A4B664A9F21634800F0DB
:100C600057FE002104910131039102944146019104
:100C700000972800FFF77AFE6EE0079B002B0EDD41
:100C80002B69002B11D0B34225D100F0ADFA002919
:100C900027DA504B504A3D21504800F039FE069A61
:100CA000079B002B01D1002AEAD12B68002C69D0C8
:100CB0005A7B94423CD0002C34D01A7B944231D8D9
:100CC00062001219033A19688C4662449278002A2D
:100CD0002FD001222DE04A4B464AA221434800F082
:100CE00017FE0890069A079B12184B41994202D8AA
:100CF00004D1904202D901225242D317002B05DAC7
:100D0000344B354A3D21354800F002FE0021049164
:100D10000131039102944146019100972800FFF7A9
:100D200025FE19E0374B384A6921384800F0F0FDBC
:100D30000122002A26D1DA7B002A29D1DC73002C7B
:100D400039D02B681B7B9C4235D8013CEB689C4614
:100D5000644423780133237000232B616A68BFF356
:100D60005F8F136089F310880120002829D000F0DC
:100D70003BFA002900DBC2E6164B174A3D21174813
:100D800000F0C6FD224B234AF721204800F0C0FDA9
:100D9000002A0AD0197B8A4207D851008A18033AE0
:100DA00019688C4662445470C8E7164B164A69218C
:100DB000164800F0ADFD0B4B104A40210B4800F0E7
:100DC000A7FD0CB01CBC90469946A246F0BDC0469B
:100DD000BC04002060460010744500107C460010E2
:100DE000FFFFFF0F48470010CC4500104C48001093
:100DF000C44600101C460010DC460010D845001008
:100E0000E8460010A04700108C450010BC470010B9
:100E100024470010BC45001010B50A4B5B68002B3E
:100E200004D00A21084800F0DBFA10BD054C23006D
:100E3000064A1021206800F09FFB03212000FFF7E5
:100E4000ADFCEEE764020020E40400200D08001071
:100E500010B5064B5B68002B01D0044810BD044B55
:100E6000044A5C21044800F053FDC046640200209F
:100E70007C470010EC4500104C480010F0B5DE46F1
:100E800057464E464546E0B589B0804616001F00DD
:100E9000129B994614AB1B789A4600221F236B4481
:100EA0001A7030E000280AD042461268127B904245
:100EB00005D8421E4146C9688A5C934643E0424BCE
:100EC000424A4021424800F023FD00F08DF90029FC
:100ED00005DA404B404A3D21404800F019FD2418F6
:100EE0004D41A94202D804D1A04202D90124644252
:100EF000E517002D05DA374B374A3D21374800F01A
:100F000007FD26002F0043465B68EFF3108572B69D
:100F10001A6854425441E4B2002CF9D1BFF35F8FF8
:100F20001F236B440493002303930293139B0193A9
:100F30004B46009332003B004046FFF717FD031E6F
:100F4000B0D10022934641464968BFF35F8F00222B
:100F50000A6085F31088002B2AD01F236B441B786E
:100F6000002B02D15A4614020443002B22D05346D0
:100F7000002B1FD013992000C84704000D00030068
:100F80000B431FD00029A0DA32003B00361BAF41D3
:100F9000BB4202D804D1B24202D901267642F717E9
:100FA000002FB0DA0B4B0C4A3D210C4800F0B0FC8E
:100FB00001246442200009B03CBC90469946A246F8
:100FC000AB46F0BD0024F5E748470010D8450010B7
:100FD0004C48001060460010744500107C4600101C
:100FE000F0B587B006000F00FFF73DF9002813D1D8
:100FF00006246442E517A4197D41BD4202D803D1FD
:10100000B44201D900240025002D08DA2C4B2D4ACA
:101010003D212D4800F07CFC2C4800F097FC049406
:10102000059500F0E1F8002905DA254B254A3D2118
:10103000254800F06DFC241A8D41002D12DDFFF7CC
:1010400007FF002302930193214B0093049A059B11
:10105000FFF714FF002822DA3000390000F0D0F842
:1010600007B0F0BD002DF7D1002CE8D1F4E7002344
:1010700000E00023002BEFD1164B1A68EFF310812C
:1010800072B61368002BFCD0BFF35F8F114B1B6847
:10109000BFF35F8F00221A6081F3108820BF04998C
:1010A000059A0D4B5B6A9A42E3D80B48806A8842E6
:1010B00003D29A42DBD00123DCE70123DAE7C04602
:1010C00060460010744500107C46001084480010F3
:1010D000DD070010E40400200040054070B5040066
:1010E0000D0000F081F8002905DA0E4B0E4A3D2173
:1010F0000E4800F00DFC02000B00001969418B4204
:1011000002D804D1824202D901204042C1170029ED
:1011100005DA044B044A3D21044800F0F9FBFFF7CF
:101120005FFF70BD60460010744500107C460010E3
:1011300010B5FA2292000023002102F065FFFFF7AC
:10114000CDFF10BD70B5EFF305833F201840103878
:10115000EFF3108472B6194B1B68002BFBD0BFF362
:101160005F8F012319008140154A5163154A127897
:101170001500C5402B4214D0114B5D6A8300124EFE
:101180009B599D4206D38300104D5B598A430D49FC
:101190000A7007E00A4A031D9B00995899500023E2
:1011A00000E00023BFF35F8F0021044A116084F345
:1011B0001088002B00D0984770BDC046280100D091
:1011C0000040054002050020F00400203C040020FF
:1011D00010B50100024A0348FFF79EFA10BDC04651
:1011E000F048001000050020044B596A00E0190087
:1011F000024B986A5B6A9942F9D1704700400540FA
:10120000084B5B6A01E0074B5B6A8B42FBD301E052
:10121000044B5B6A8B4203D1024B9B6A8342F7D338
:101220007047C0460040054070B504000D00EFF364
:10123000108672B61B4B1B68002BFBD0BFF35F8F71
:10124000002D1CD0200000F011FD174B98420BD050
:101250001900200000F012FD0121200000F0FEFC2A
:101260000123A340114A1360A400114BE550BFF3C2
:101270005F8F00220B4B1A6086F3108870BDA200AE
:1012800000210B4BD1500122A2400A490B78934315
:101290000B700549200000F01BFD0021200000F02C
:1012A000DDFCE4E7280100D045110010386005405E
:1012B0003C04002002050020F0B5DE4600B584B0F5
:1012C0000500140001921E000293FFF78DFF0394A6
:1012D0008E422CD9EFF3108B72B6294B1B68002B72
:1012E000FBD0BFF35F8F274A17780124AC40E3B2ED
:1012F0003B431370244B5C632A1D92000199D1502B
:10130000AA002249029850501B6A23421BD11E4B4F
:101310001B6C234211D00020BFF35F8F0022184BBB
:101320001A608BF3108804B004BC9346F0BD8E4263
:1013300001D18442CED80120F5E7154B154AC121D1
:10134000154800F0E5FAFFF74FFF8E4214D802D19E
:10135000039B834210D80B4B1B789F420ED00A4B45
:101360001C625C631F222A40012393400B4A1360D6
:10137000044B1F700120CFE70020CDE70120CBE711
:10138000280100D00205002000400540F0040020A4
:1013900014490010D44800103849001080E200E0E1
:1013A00010B5EFF3108472B60A4B1B68002BFBD00C
:1013B000BFF35F8F01238340074A136207490A780E
:1013C0009A430A70BFF35F8F0022024B1A6084F3C6
:1013D000108810BD280100D0004005400205002003
:1013E000024B9C4661448900016070474000003414
:1013F00070B504000D00FFF7C3F901002000FFF7EE
:10140000EFFFFF2323716571BFF35F8F70BD10B5D0
:101410000021FFF7EDFF10BD10B5FF21FFF7E8FF3A
:1014200010BD000010B500291FD0037B99421CD8C5
:101430004B005B18033B0468A446634400291AD0A0
:10144000002A1ED0914222D0002A26D0047BA2423C
:1014500023D8046850008018033820188170197848
:10146000002920D041701A7010BD104B104A69211C
:10147000104800F04DFA104B104A70310D4800F042
:1014800047FA0F4B0D4A71210A4800F041FA0D4B03
:101490000A4A7221074800F03BFA044B044A6921CA
:1014A000044800F035FA1A70DEE7C046A047001085
:1014B000584A0010BC47001008480010644A001049
:1014C000144800102048001070B506000D001400EC
:1014D000002916D0002A01D1080013E08068736843
:1014E0009847002806D12A0021003000FFF79AFF14
:1014F000200007E0220029003000FFF793FF2800BA
:1015000000E0100070BD000010B5002343730133EC
:101510008373037BC373012308E05A00D218033A94
:1015200001688C4662440133DBB25370027B934204
:101530000AD2002B02D0027B9342EED90B4B0C4A0D
:1015400069210C4800F0E4F9002A09D0924207D83A
:10155000016853009A18033A8A180023537010BD8B
:10156000024B034A6921034800F0D2F9A04700105A
:10157000584A0010BC47001010B5017342608360E8
:10158000FFF7C2FF10BD000070B50400002901D1B3
:10159000080070BD002928D0037B994225D84B0054
:1015A0005B18033B0268944663445A78002AEFD0E4
:1015B00021D0007B82421ED8500080180338256855
:1015C000AC4660444678002545705D702000FFF70A
:1015D0007BFF050031002000FFF7D6FF0200290045
:1015E0002000FFF771FF0100D2E7064B064A692190
:1015F000064800F08DF9034B034A6921034800F0C7
:1016000087F9C046A0470010584A0010BC47001098
:1016100070B505000C001600002928D02DD0037BE2
:1016200099422AD84B005B18033B026894466344F6
:101630005A78002A27D19A78002A2AD11978FFF7F8
:10164000A3FF0300002E03D0EA7B002A27D1EC730E
:10165000002B37D1002C49D02B7B9C4246D82A68DE
:1016600063001C19033C14190023637070BD224BE6
:10167000224A3821224800F04BF9224B224A6921A4
:10168000224800F045F9224B1C4A3A211C4800F040
:101690003FF9204B194A3B21194800F039F9002A3B
:1016A0000AD0297B8A4207D851008A18033A296850
:1016B0008C4662445470CAE7124B134A692113489E
:1016C00000F026F9002B0BD02A7B934208D8430068
:1016D0001B18033B2A689446634400229A70B9E7BA
:1016E000084B094A6921094800F012F9054B064ADE
:1016F0006921064800F00CF9CC4A0010784A001025
:10170000D44A0010A0470010584A0010BC470010EF
:10171000104B0010384B001070B504000A00457BD8
:101720002900FFF775FF6073280070BD10B5040035
:1017300000296AD0437B99420ED0002911D0037B47
:1017400099420ED84B005B18033B0268D01883788F
:10175000002B0CD1002059E00121FFF7DDFF012013
:1017600054E02B4B2B4A69212B4800F0D1F8002B79
:101770001AD0227B934217D85A00D318033B226811
:10178000D2181378994215D0002B16D0227B9342A1
:1017900013D85A00D318033B2268D21853789942C1
:1017A00011D0002BF0D111E0194B1A4A69211A48C7
:1017B00000F0AEF8437813700AE0154B154A692122
:1017C000154800F0A5F8437853700123002B10D082
:1017D00000238370437001222000FFF719FF0200ED
:1017E000617B88420BD02000FFF76EFE6073012002
:1017F0000CE00A4B0A4A67210A4800F089F80A4BB4
:10180000074A6D21074800F083F8002010BDC0464C
:10181000A0470010584A0010BC470010A44A00100E
:101820008C4A0010D44A0010AC4A001070B5264A09
:10183000264B1A60264A274B1A60274B9A68244B7E
:101840009343FAD1254C01E008CC9847244B9C42A5
:10185000FAD300F013F9234A1E4B1A601E4B9B6803
:10186000DB43DB01FAD1204B40229A675A671A67A3
:10187000DA661E4C03E02000FFF7C9FD08341C4B5C
:101880009C4206D26379002BF5D02000FFF7C4FDFF
:10189000F4E7184CA168184DC022280002F0CEFCD5
:1018A000A560FEF7E0FC002800D000BEFEF758FF60
:1018B00000F076FBFFF7B0FA104C01E008CC984737
:1018C0000F4B9C42FAD370BDBFCDFBFE00E0004041
:1018D000FE7F3C0000F0004000C0004008030020F4
:1018E00018030020FFFFFF0100F00140000300206B
:1018F0000803002000ED00E0000000201803002095
:101900001C03002000BEFDE710B5FFF7FBFF000041
:1019100010B582B00C001900002A0CD0084B002A28
:101920000BD00192009323000200064802F09EFDB6
:101930000120FFF7E7FF044BF1E7034AF1E7C04658
:101940005C4B00106C4B0010684B00100FB400B5DE
:1019500083B0084802F05AFD049B002B07D005A96C
:101960000191180002F060FD034802F04FFD0120D4
:10197000FFF7C8FF9C4B0010AC4B0010F0B5DE46E3
:10198000574680B583B007000D0092460A9A9342ED
:101990004DD31A0E110001921B02180000930A9AEF
:1019A000002301F0C3FC04007B00DB199E002E4BDA
:1019B0009C4666447368834200D270603B1FDBB272
:1019C0009B46012B39D9C0239B013343802212014E
:1019D0001A60BB00254A9958002905D0506901F0CA
:1019E00063FC01300138FDD153465B01326853403E
:1019F000E022134080225201324313605B46012BE8
:101A000026D980239B013343802212011A6074601F
:101A1000220000230098019901F088FCBF00134BBD
:101A2000F850012003B00CBC92469B46F0BD104B11
:101A3000104A2D211048FFF76BFF012DC3D1C023A1
:101A40009B01334303221A60B368DB07FCD5CBE765
:101A50003168694003230B401360B3680122AA4038
:101A60001A42FAD0CDE7C046008000404C04002066
:101A7000C04B0010B04B0010D44B001030B583B0F9
:101A80000C2000F021FBFEF761FE00280DD00023A2
:101A900004E099002D482E4A88500133092BF8D9CB
:101AA0002C4A2B4B5A6203B030BD00222A4B9A6756
:101AB00000F012FB0122294B1A60274B5B6C012BB3
:101AC000FBD10322264B1A60234B9B6B012BFBD1CE
:101AD000022400940533234A0121234800F06CFAC4
:101AE00000940523214A0121214800F065FA214B89
:101AF0000093002202210420FFF740FF1E4D0095B5
:101B00002B00002201210520FFF738FF0F4C009425
:101B10002300002200210720FFF730FF009423005C
:101B2000002200210820FFF729FF0A4B0093230021
:101B3000002200210920FFF721FF00952B00002241
:101B400000210620FFF71AFFADE7C046006CDC025B
:101B50004C0400201BB70000008000403CB0004057
:101B600030B00040002F68590080024000389C1CB3
:101B700000C00240001BB700405973078000014BB2
:101B8000C05870474C040020074B9B681030800001
:101B90001950BFF35F8FBFF35F8F0021034B1960B4
:101BA00082F310887047C04600ED00E0240100D0A9
:101BB00010B5091A04394808090B05D14005400D34
:101BC000044B184380B210BD034B044A8C210448D7
:101BD000FFF79EFE00E0FFFF0C4E0010344C00109B
:101BE0001C4E001010B5091A04394C08090B08D115
:101BF0004905490D064A11430180064B23434380A2
:101C000010BD054B054A94210548FFF781FEC046EB
:101C100000F0FFFF00F8FFFF0C4E0010404C0010DA
:101C20001C4E001001238340034A10681840431ED5
:101C30009841C0B27047C04600E100E0002902D1DF
:101C4000034B18607047034B1860034B1860F9E7AB
:101C500080E100E080E200E000E100E010B5012357
:101C600083401800FFF7EAFF10BD0000024B9B689D
:101C700010308000C058704700ED00E070B50400DF
:101C80000D00EFF3108672B60C4B1B68002BFBD0D7
:101C9000BFF35F8F2000FFF7E9FF094B984201D0A7
:101CA000A84205D1320029002000FFF76DFF70BD6A
:101CB000044B054A70210548FFF72AFE240100D095
:101CC000CD010010D44D0010184C00101C4E001017
:101CD000F0B5CE4600B582B005000F00EFF31089D5
:101CE00072B6584B1B68002BFBD0BFF35F8F564B6F
:101CF0009A682C001034A300D658544B9E4200D151
:101D00009CE0BE4200D19BE00096514BF31A2F2B72
:101D100008D94A4631002800FFF736FF02B004BC5C
:101D20009146F0BD2800FFF77DFF019000212800BB
:101D3000FFF794FFBFF35F8FFEF795FA011E01D006
:101D400084421AD10123009C9C432200404BD21AAA
:101D50005241494B53431B0D5BB29C460023A06884
:101D6000874212D00622A256002A0DDB53009B1890
:101D70009A002300364CA418F1E7364B364A20214E
:101D8000FF313648FFF7C4FD230087424FD10627B5
:101D9000E757002F36DB7A00D21991002C4B5B18E5
:101DA0009A68A260DA79E27106229A56A2719B794A
:101DB0005BB2002B23DB201D254A8B181A1D9B8844
:101DC000D90A1C2915D15905491502314900511864
:101DD000FFF7EEFEA0807B00DB199A001C4B9B18DE
:101DE0001F4A11789971177001992800FFF736FF83
:101DF0008FE71C4B1C4A9A211848FFF789FDBD202C
:101E00000002E7E700290DD1002B09D0FF229A71CB
:101E1000164A9A80124B1A78A27162461A70E3E74A
:101E20000A4EF7E7201D1249FFF7DCFEDCE7114BF5
:101E3000094AAA2149000948FFF76AFD034E68E7ED
:101E4000024E66E7240100D000ED00E0CD01001055
:101E50008C020020A84D0010684C00101C4E001091
:101E6000010500205C4D0010584C001000BDFFFF24
:101E7000C6020020CC4D0010AAAA000010B5032312
:101E800004009C43064A9446644422681840C000FB
:101E9000FC3383409A4381401143216010BDC0460A
:101EA00000E400E0F8B5040001260643304BF31AC5
:101EB0002F2B28D8FEF7D7F900282BD0EFF3108569
:101EC00072B62C4B1B68002BFBD0BFF35F8F230037
:101ED00027495B1A5B4131495943090D49B2264BE9
:101EE0009B6880001B589E421BD00023032B28D8E0
:101EF0005A00D21890001E4A1218927952B28A42A1
:101F000014D00133F2E71D4B1D4A7221FF311D48E9
:101F1000FFF7FEFC1C4B1A4ABA2149001948FFF78B
:101F2000F7FC154B9B68194A1A500DE010485A00EF
:101F3000D718BE008619FF27B771154BB380012350
:101F400000E00023002B0BD0124B1A78A2711970FD
:101F5000BFF35F8F0022074B1A6085F31088F8BD2E
:101F60000D4B074A8621FF310648FFF7D1FCC046DA
:101F70008C020020240100D000ED00E0744D001020
:101F80007C4C00101C4E00109C4D0010CD01001028
:101F900000BDFFFF01050020A44A0010AAAA00000E
:101FA00010B5002404E080212000FFF767FF013412
:101FB0001F2CF8D910BD0000F0B5CE4600B50500C5
:101FC0000C0017001E000C2001F06EF98146334909
:101FD0004143380001F068F90200103A98235B0091
:101FE0009A4232D8731E062B35D8069B013B062B2E
:101FF00031D8069B9E4234D33F09B94537D83304C4
:10200000069A16031E432B68002B36DB244B9D4299
:1020100041D080214901234B1960234B1960234A89
:1020200092680B009343FAD12C60A8602A1DC0234C
:102030009B01134321221A602A68002AFCDAEE6011
:1020400008221A6004BC9146F0BD194B194A1621AA
:102050001948FFF75DFC194B164A19211648FFF77E
:1020600057FC174B134A1F211348FFF751FC154B20
:10207000104A22211048FFF74BFC2A683F231340E7
:102080009C42C3D1AB681B051B0D9842BED1EB68C7
:10209000002EBBD1D6E780218901BCE740420F006A
:1020A00000C0024000E0004000F0004000C00040DE
:1020B000684E00105C4E0010844E0010C44E00109C
:1020C000104F0010284F001080239B001843014B35
:1020D000D862704700800540064BAA2212011A60A0
:1020E0002F22DA60044A054B1A60024B5B68002B12
:1020F000FBDA70470040024000B0FA000060024086
:10210000704710B5002800D110BD0B68496898478A
:10211000FAE710B50400002307E09800C318580040
:102120004B1C23600B781B18303B21680A78303A2F
:10213000D2B2092AF1D9180010BDF0B5D6464F46E3
:102140004646C0B582B00500009101930A9B9946AE
:102150000B9C0C9B98460D9B9B0717D04B469146BA
:102160001E0022E0541C019B00992020B04701373B
:102170002200AF42F6D354460C95350046460C9BE0
:1021800098464B460A93B1461E000EE02700A24631
:1021900043460C93904606001D00EAE7013C571C9D
:1021A000305D019B0099A8473A00002CF6D14E46BD
:1021B0000D9B9B070BD52C00474605E0551C019B4A
:1021C00000992020A0472A00931B9F42F6D81000B8
:1021D00002B01CBC90469946A246F0BDF0B5CE4672
:1021E00000B586B0049205930C9D0D9C0EAE33781D
:1021F0009946109A119B129EB7071CD4002B0CD045
:10220000F7070AD54F46002F02D10C37374204D0CA
:10221000013B02E030272F550134944205D21F2C98
:10222000F8D902E030272F550134F70703D59C4237
:1022300001D21F2CF6D9F70615D5770505D4002C49
:1022400003D094421CD09C421AD00F9A102A23D05B
:102250000F9A102A28D00F9A022A2DD01F2C02D8AC
:1022600030272F5501341F2C2FD84A46002A29D158
:10227000720736D4320728D520272F55013424E0A1
:10228000671E002F06D00F9A102A01D03C00DCE711
:10229000023CDAE73C00D8E7B206D9D41F2CD7D8E5
:1022A00078272F550134D9E7B206D4D51F2CD2D8C0
:1022B00058272F550134D1E71F2CCFD862272F552F
:1022C0000134CBE72D272F55013403960293019457
:1022D0000095059B049AFFF730FF06B004BC9146B9
:1022E000F0BD2B272F550134EFE7F0B5C64600B5FA
:1022F00094B0089009910A920B931AAB10CB1B78FB
:1023000098461F9D002C01D110239D438027FF007C
:102310002F4015D0002C20D0002711E0AA061AD596
:102320004121C918C9B20A39C9B20CABD9551C9997
:10233000200000F0B9FF041E10D037001F2E0DD86A
:102340001C99200000F0B0FFCBB27E1C092BE5D811
:102350003033D9B2E9E76121E3E7002606951E9BF9
:1023600005931D9B04931C9B039343460293019684
:102370000CAB00930B9B0A9A09990898FFF72EFF64
:1023800014B004BC9046F0BDF0B5DE46574680B5AB
:1023900099B00C900D910E920F93209C219D22AB31
:1023A0001B789B46249B0A93259B0B93289B9A465C
:1023B00023002B4303D1103352469A439246802682
:1023C000F60053461E4006D023002B432FD0002694
:1023D0005746099419E05746099416E0BA0621D5E4
:1023E0004122D218D2B20A3AD2B210AB9A550A9A06
:1023F0000B9B0998290000F099FF09900D000B0034
:10240000034316D026001F2C0ED80A9A0B9B09985E
:10241000290000F08BFFD3B2741C092BDED83033B7
:10242000DAB2E2E76122DCE7BA46270003E00027E0
:1024300001E0BA46270053460693279B0593269B47
:1024400004930A9B03935B460293019710AB00939E
:102450000F9B0E9A0D990C98FFF7C0FE19B00CBC9B
:1024600092469B46F0BD0000F0B5DE465746464614
:10247000C0B594B004000691150007931C9E089601
:102480001D9F099732003B003000390001F0DBF955
:10249000002800D0E9E001225242D04B3000390040
:1024A00001F0CCF9002800D0DFE001225242CC4BF1
:1024B0003000390001F0ACF9002800D0D5E000224E
:1024C00000230898099901F0A3F9002800D0E2E060
:1024D000089A099B0A920B938023DB00209A1A40EA
:1024E0009246131E01D106331E930A980B990200DF
:1024F0000B000C920D9303000A00024300D1D3E0BD
:102500000A00100D4005400DB64EB446604412035B
:10251000120B1E00B44B13431F0001F0A7F9B34A7E
:10252000B34B01F032F9B34AB34B01F007F90C9009
:102530000D910022B14B3000390001F0F6F8B04A9D
:10254000B04B01F022F902000B000C980D9901F03C
:10255000F5F801F0A3F9060001F088F9AA4AAB4B9F
:102560000C900D9101F011F90022A94B01F0E6F851
:1025700001F094F90700A74AA74B0C980D9901F0B8
:1025800004F90C900D91380001F070F9A34AA44BA6
:1025900001F0FBF802000B000C980D9901F0C5F852
:1025A00002000B000E900F9101F0EFF810901191C6
:1025B0009C4BFB181B050D9300230C930E980F9951
:1025C00002000B0001F0BAF8129013910E9A0F9BC3
:1025D00000208021C90501F0A8F80E900F9100227B
:1025E000914B1098119901F0B2F800228F4B01F035
:1025F000A5F802000B001098119901F0A8F800222C
:102600008B4B01F09BF802000B001098119901F020
:102610009EF802000B000E980F9901F08FF802004F
:102620000B001298139901F092F800226E4B01F002
:1026300085F80C9A0D9B01F0A8F802000B000C9293
:102640000D930E900F9102000B000A980B9901F068
:10265000DFF8002829D0013E0022744B0E980F9914
:1026600001F075F80C900D911FE0209B04931F9BC7
:1026700003931E9B0293089A099B00920193079B68
:102680002A000699200000F0F7F814B01CBC904610
:102690009A46A346F0BD089B0A93099B8022120626
:1026A000944663440B9317E7002633006333C62B2D
:1026B0002BD80427209B1B0521D50C9A0D9B1900B4
:1026C00011430FD05B4A5C4B0A980B9901F0AEF8AE
:1026D00000281FD00022594B0A980B9901F098F856
:1026E000002817D01E9B9E4211DA9E1B731E1E935C
:1026F0008023DB00209A1A432092002700261F9B8C
:102700009F4211D2DB1B9B4610E00527D2E7002336
:102710001E93EDE71E9B002BF1D05346002BEED00D
:102720001E9B013B1E93EAE700239B460223209A4F
:102730001A40924603D0002F01D000239B46002E62
:1027400007D00C9A0D9B0A980B9901F000F80A909B
:102750000B91002200230898099901F059F80028EC
:1027600070D1374B209A134004935B4603931E9B12
:1027700002930A9A0B9B00920193079B2A000699E9
:10278000200000F079F8002F00D17EE7209B9B0607
:1027900063D545230893431C9846079B020006997E
:1027A0000898A047F217B1185140F30F7A1E052080
:1027B00005900492002203920A3202920193009142
:1027C000079B424606992000FFF78FFD5346002BDA
:1027D00000D15AE702001F9E48E0C046FFFFEF7F8E
:1027E000FFFFEFFF01FCFFFF0000F03FFB799F5070
:1027F0001344D33FB3C8608B288AC63F0000F83F1C
:1028000061436F63A787D23F71A379094F930A4051
:102810000000E03F1655B5BBB16B0240EF39FAFE40
:10282000422EE63FFF03000000002C400000244041
:10283000000018402D431CEBE2361A3F80842E41E5
:10284000FFF7FFFF0A990A000B99802000068446D3
:1028500061440B000A920B9383E7652308939AE780
:10286000571C079B06992020A0473A00531B9E4205
:10287000F6D8100009E7C046F0B5D646474680B501
:1028800097B00690079108920993209F1E9A1F9B6C
:102890001000190000F0D7FF00282AD1012252426F
:1028A000BA4B1E981F9900F0B3FF002830D10122C7
:1028B0005242B74B1E981F9900F0C0FF00283AD033
:1028C0000423229A134032D0B24A002B31D1032381
:1028D000229903912199029101930092099B089AF0
:1028E00007990698FFF729FC17B00CBC90469A464A
:1028F000F0BD229B0393219B029303230193A64BDC
:102900000093099B089A07990698FFF716FCEBE7D6
:10291000229B0393219B0293042301939F4B0093DB
:10292000099B089A07990698FFF707FCDCE79C4A81
:10293000CBE70423CCE700229A4B1E981F9900F0A6
:102940007DFF002817D10022974B1E981F9900F099
:102950005FFF00280FD1002200231E981F9900F06E
:1029600057FF002817D100239A46229B5B0500D40D
:10297000062700261FE0229B0493219B03930297C6
:102980001E9B1F9C00930194099B089A0799069827
:10299000FFF76AFDA8E71E9A1F9B0020002100F0A8
:1029A000C4FE1E901F9101239A46DEE730220EAB33
:1029B0009A55013F01361F2E01D8092FF6D81E98CF
:1029C0001F9900F06BFF040000F050FF02000B00A5
:1029D0001E981F9900F0A9FEFA00744B9B181A6804
:1029E0005B680C920D9300F0D0FE0A900B9100F002
:1029F00079FF050000F036FF02000B000A980B99E2
:102A000000F093FE0A900B910022694B00F016FF34
:102A100000282CD00135280000F024FF02000B0014
:102A20000C980D9900F0FAFE002801D00134002521
:102A3000002F2AD1200000F019FF02000B001E9881
:102A40001F9900F072FE0022594B0A900B9100F082
:102A5000DFFE002843D10022554B0A980B9900F065
:102A6000EDFE00283BD1E30739D5013437E00022E1
:102A70004F4B0A980B9900F0CBFE0028D8D1002DBF
:102A800001D0EB07D4D50135D2E70A941F2E10D818
:102A9000013F741C0A21280000F006FC30310EAB07
:102AA00099550A21280000F0FFFB051E03D02600DF
:102AB000ECE70A9C08E0A0460A9C464604E0302168
:102AC0000EAA91551F0001361F2E02D87B1E002F23
:102AD000F5D11F2E03D82E220EAB9A5501361F2E8C
:102AE00010D8751C0A21200000F0B6FB30310EAB67
:102AF00099550A21200000F0AFFB041E01D02E00E2
:102B0000EDE72E000323229A1340012B16D01F2E2F
:102B100006D85346002B28D02D220EAB9A550136ED
:102B2000229B0393219B029301960EAB0093099B7A
:102B3000089A07990698FFF700FBD5E6219B002B22
:102B40000DD05346002B02D10C33134207D0219BEA
:102B5000013B219303E030220EAB9A550136219BB5
:102B60009E42D4D21F2EF6D9D1E7229B5B0704D513
:102B70002B220EAB9A550136D2E7229B1B07CFD5ED
:102B800020220EAB9A550136CAE7C046FFFFEFFF81
:102B9000FFFFEF7F2451001030510010345100101E
:102BA0002C51001065CDCD4165CDCDC140510010F7
:102BB0000000E03FF0B5DE4657464E464546E0B5DC
:102BC00093B083460B910A921193002912D00027EB
:102BD0005E46119B1878002800D1E5E225280CD02C
:102BE0007C1C0A9B3A000B99B047119B013311934F
:102BF0002700EEE7CD4B9B46E9E701331193002513
:102C000006E001231D43013211920124002C23D040
:102C1000119A1378203BD9B210291BD88B00C449D4
:102C2000CB589F4602231D43013211920124EDE748
:102C300004231D43013211920124E7E708231D43B9
:102C4000013211920124E1E710231D430132119258
:102C50000124DBE70024D9E7119B1A781300303BED
:102C6000DBB2092B10D92A2A13D0A346119B1A785C
:102C70002E2A1ED0119A1378683BD9B2122959D83E
:102C80008B00AC49CB589F4611A8FFF742FA834608
:102C9000ECE71C9B1A1D1C921B68002B04DB9B4657
:102CA000119B01331193E1E7022215435B429B46DE
:102CB000F6E78022D20015435A1C11925A7813006D
:102CC000303BDBB2092B0BD92A2AD3D11C9B1A1D0E
:102CD0001C921C68002C08DB119B01331193C9E77F
:102CE00011A8FFF716FA0400C4E70024F4E78023D4
:102CF0005B002B43511C119152786C2A01D01D00AE
:102D000018E0C0239B001D430131119112E0802384
:102D10002B43511C11915278682A01D01D0009E003
:102D2000C0231D430131119104E080235B001D434A
:102D300001321192119B18780300253BDAB2532A15
:102D400000D927E293007C4AD3589F4680239B00FA
:102D50001D4301321192EDE780235B001D430132D8
:102D60001192E7E778280AD0582840D06F2841D040
:102D7000622842D010239D43063B9C4601E010236D
:102D80009C4658283CD0692803D0642801D00C22E6
:102D900095436B0501D501229543692833D06428FA
:102DA00031D0AB0500D5A4E0EB0500D5C6E06B063D
:102DB00000D5D8E02B0600D4DCE01C9A111D1C9134
:102DC00012681204120C05955B4604930394634643
:102DD00002930023019300920A9B3A000B99300062
:102DE000FFF783FA0700119B01331193F1E61023DB
:102DF0009C46C6E708239C46C3E702239C46C0E7DF
:102E000020221543BFE7AB051ED4EB054DD46B065E
:102E100063D42B0668D51C9A111D1C910023D25E29
:102E2000D317D1185940D20F05955B4604930394EC
:102E300063460293019200910A9B3A000B9930007D
:102E4000FFF753FA0700CEE71C9BDA1D07218A43E0
:102E5000110008311C91116853689846DB170E93D6
:102E60000F930E9A0F9B100048400C90190040469B
:102E700041400D910C980D99801A99410C900D913B
:102E80004346DA0F08955B4607930694634604931E
:102E9000002305930292009001910A9B3A000B993E
:102EA0003000FFF771FA07009DE71C9A111D1C9175
:102EB0001268D317D1185940D20F05955B46049379
:102EC000039463460293019200910A9B3A000B9986
:102ED0003000FFF70AFA070085E71C9A111D1C91C4
:102EE0001168FF220A409BE71C9A111D1C91126871
:102EF00096E71C9BDA1D07218A43110008311C91BB
:102F00005368126800920193002208955B4607936C
:102F1000069463460493059202920A9B3A000B9929
:102F20003000FFF731FA07005DE7C04601210010CD
:102F3000444F0010884F0010D44F00101C9A111DF0
:102F40001C911368009305955B46049303946346B4
:102F50000293002301930A9B3A000B993000FFF77C
:102F6000C4F907003FE71C9A111D1C911168FF224C
:102F70000A4028E71C9A111D1C91126823E7462875
:102F800019D01C9B0733072293431A0008321C9266
:102F90001A685B680092019304955B460393029460
:102FA0000A9B3A000B993000FFF766FC0700119B63
:102FB000013311930DE620231D43E2E767281FD05C
:102FC00047281DD045281FD047281DD01C9B0733FC
:102FD000072293431A0008321C921A685B68009219
:102FE000019304955B46039302940A9B3A000B9964
:102FF0003000FFF739FA0700119B01331193E8E520
:1030000080231B011D43DDE720231D43DEE7022350
:103010002B409A461ED001251C9B1A1D1C927C1C1D
:1030200018780A9B3A000B99B0475346002B22D1DF
:10303000119B013311932700CBE5541C0A9B0B997C
:103040002020B0472B0022005D1C9F42F5D8BB46D4
:103050001700E1E701233A005F46F5E7571C0A9B9A
:103060000B992020C04725003A006C1CAE42F5D8D1
:1030700014004646DCE72200B0465E46F5E71C9B9E
:103080001A1D1C921B689846002C02D02300414652
:1030900004E001235B42FAE7013113000A78002AB9
:1030A00002D05A1E002BF7D14346CB1A9A468023F2
:1030B000DB002B40994602D0A24500D9A24602234C
:1030C0002B40109315D03A004546B0464E461CE0C2
:1030D000571C0A9B0B992020B0472B003A005D1C1F
:1030E0009C42F5D8A3465446AA464546B0464E46AD
:1030F0000BE03A005346A2465C46F0E71C0001355F
:10310000571C0A9B0B99C0473A002878002804D026
:10311000002EF4D0631E002CF0D117004646109B01
:10312000002B0FD1119B0133119352E5551C0A9BC3
:103130000B992020B04723002A005C1C9F42F5D841
:103140001700EFE75F465346F7E721232B431C9A0E
:10315000111D1C9112680092059308230493039497
:1031600008330293002301930A9B3A000B99300025
:10317000FFF7BBF80700119B0133119329E57C1C75
:103180000A9B3A000B992520B047119B01331193FC
:1031900027001EE57C1C0A9B3A000B99B047119B47
:1031A00001331193270014E5B3460A9A97420CD3D2
:1031B000013A0A9B0B990020D847380013B03CBC59
:1031C00090469946A246AB46F0BD3A00F1E7C046AC
:1031D00000B585B002900391009313000122524282
:1031E00002A90248FFF7E6FC05B000BD032100106C
:1031F00001480421014B1847E00200202132001051
:1032000010B5010018231B8814221088984710BDA0
:1032100010B5010018231B8816221088984710BD8E
:10322000F0B5C64600B507000E00002501239846FC
:1032300000E00135B5420AD2AC003C192068FFF726
:10324000DFFF20600028F4D100239846F1E74046D4
:1032500004BC9046F0BD0000124A936F9B0815D243
:103260009066D166002905D0FFE7FFE7FFE7516FC1
:10327000106F704704B580210906C217514000281D
:1032800000D0C84301F044F9002104BDF0B5146E2C
:10329000556E576F166FFFF7E3FF14665566576755
:1032A0001667F0BD000000D0114A936F9B0813D23F
:1032B00010665166002905D0FFE7FFE7FFE7516F71
:1032C000106F704704B5002801D00020C04301F002
:1032D0001FF9002104BDC046F0B5146E556E576F3E
:1032E000166FFFF7E5FF1466556657671667F0BD62
:1032F000000000D094464E4A926F9208624601D276
:1033000030E0C046F0B54A4EB56F6D08FCD3346E60
:10331000756E776F366F00F025F89446444A146650
:103320005566576716676246F0BDC0469446404AE8
:10333000926F9208624601D258E0C046F0B53C4E0A
:10334000B56F6D08FCD3346E756E776F366F00F015
:103350004DF89446364A14665566576716676246B6
:10336000F0BDC046002B24DB11D000293EDA00B5A9
:10337000C943404200D1013100F038F8C94340420E
:1033800000D10131DB43524200D1013300BD002A9C
:10339000EBD1002801D1002905D00020C90FC907B1
:1033A00001D1C043410800B501F0AAF80022002372
:1033B00000BD00B500290ADBDB43524200D10133D6
:1033C00000F014F8C943404200D1013100BDC943A7
:1033D000404200D10131DB43524200D1013300F0C1
:1033E00005F8DB43524200D1013300BD002923D14F
:1033F000002B18D1002A0CD0BC460D4F38667A66D7
:1034000000210023FFE7FFE7FFE77A6F386F674689
:103410007047002801D00748010000B501F070F89E
:103420000022002300BD02000B0000200021704795
:10343000000000D0FFFFFFFF002B00D0BDE0130C09
:1034400026D1002AE7D080B4104F39667A66FFE7AC
:10345000FFE730B4040C7B6F396F1B0423433B66DA
:10346000FFE7FFE7FFE7C04684B27B6F3D6F1B04B9
:1034700023433B66FFE7FFE7C04600232C042D0CE7
:103480007A6F386F00196941B0BC7047000000D0F6
:10349000F0B594460025140E01D112020835140F20
:1034A00001D112010435940F01D192000235D40FDD
:1034B00001D152000135D40B0134254F7C66254CD7
:1034C0003C660E0C93B2FFE7FFE7FFE73C6F6643F5
:1034D000360C7703BE467343DF0B5B04C01AB94159
:1034E000130C7343DB18C91ACE086643360CB64476
:1034F00093B273431F0F1B01C01AB941130C7343DE
:103500001F0B1B05C01AB941860D8F023E4366434F
:10351000360C092D24DB520A7243801A7703460ABF
:103520006643360C16235B1BDE40DF40BF19644642
:103530006643821B7046043506330100D940A8401B
:10354000C01900D30131A24206D20023F0BD000011
:10355000000000D0FFFFFFFF121B0130F3D3F1E7A3
:1035600009277F1BFE406446A2B27243801A00D234
:103570000139220C7243130C1204821A99410B0078
:103580007046043513370100F940A840801900D374
:103590000131002B02D1A2420AD2F0BD013000D38A
:1035A0000131121BFAD2013BF8D1A24200D2F0BD88
:1035B000013000D30131121BF7E7F0B51C0C00D02D
:1035C00080E00CB400251C0A04D11B02160E334304
:1035D000120208351C0B04D11B01160F33431201D4
:1035E00004359C0B04D19B00960F334392000235A7
:1035F000DC0B02D192185B4101351C009718644125
:103600000134464F7C66464C3C660E0CFFE7FFE7F4
:10361000FFE7C0463C6F6643360C7703BE4697B261
:103620007743C01B00D20139C01B00D201399FB2C1
:103630007743C91BC91B170C77437E04FF0B801B04
:10364000B941CE086643360C0C2D33DBB644120B61
:103650001F053A431B0B97B27743C01B00D20139B9
:103660009FB27743C91B170C77433E043F0C801B66
:10367000B941860D8F023E43664329277F1BFE40DA
:103680000C3D7746AF40BF1930BCA2B2ABB272431B
:103690007343801A9941220C7243130C1204801A4E
:1036A000994102000B000137001BA941F9D2781E95
:1036B0000021F0BD0C277F1BFE4077467F0BAF40FB
:1036C000FF19E0E700245D1C07D0144F7D663966C2
:1036D000FFE7FFE7FFE7FFE73C6F95B29EB2654368
:1036E0006643401BB141150C1E0C6543664336040E
:1036F0002F0C3E432D04401BB141994204D20200DD
:103700000B0020000021F0BD01D19042F7D3801AB8
:10371000994101349942F2D3F6E70000000000D04D
:10372000FFFFFFFF48404140484018B41B4B5B6817
:10373000FC46019308BD04DF073A001018B4174B8C
:103740001B68FC46019308BD00DF113A0010944647
:10375000134A926F920809D2624618B40F4BDB6885
:10376000FC46019308BD0CDFC93C00100C4AF0B5C3
:10377000146E556E576F166F6246FFF7EEFF084ADC
:103780001466556657671667F0BD18B4034B9B68FF
:10379000FC46019308BD08DF6D3B001004050020C6
:1037A000000000D0FFB550404240504059404B40CF
:1037B000594000E0FFB5154F4C00640D03D0BC42EA
:1037C00004D10C0314D80020090D09055C00640D18
:1037D00003D0BC4204D11C030AD800221B0D1B05D8
:1037E00001264B4009D44B4003D58B4200D1824285
:1037F000FFBD9942FCD19042FFBD0B43DB18034350
:103800001343F5D0C9434918FFBD0000FF0700006E
:1038100000B5FFF7CFFF804100BDC04600B5FFF700
:10382000C9FF01D9002000BD012000BD00B5FFF790
:10383000B9FF01D9002000BD012000BD00B5FFF790
:10384000B1FF804100BD012040054A00121804D894
:103850005A00121801D8002070470120704700203C
:10386000704700000021002805D17047C11748406B
:10387000401AFAD0C90713B5064B1B6898470CBC11
:10388000441CA2401005120B0349091B09051943EA
:10389000114310BD040700201F04000010B54C00A8
:1038A000620D8023D218DB00D21A5B057E2A10DD60
:1038B0009E3A13DACC170903490819435242D14002
:1038C000640001341532202A05DAD04008436043F1
:1038D00010BD002010BD0846604310BDC80FC018C1
:1038E000013810BD18B4044B5B6AFC46019308BD57
:1038F00024DFF53E001000000405002018B4044B3E
:10390000DB6FFC46019308BD7CDF713F00100000B7
:103910000405002070B513231C78012C22D0012C43
:1039200012DD1E48FFF774FC05001D48FFF770FC10
:10393000023803789B007F2B16DD8022290019486E
:1039400000F07CFC022C15D0022C02DC154B164A30
:103950009A6470BD9900134A1348885001331F2B95
:10396000F8D9DCE70023FAE7104B114A302111485F
:10397000FDF7CEFF104B1A88B5231B029A4209D1DE
:103980000E4B1A880E4B9A4204D10E4B1A880E4BDE
:103990009A42D9D00020FDF7D9FFC0465344000019
:1039A0005346000004050020CD390010905100104E
:1039B0003C520010F051001054380000D83800007C
:1039C000494600009C3800005946000007B5604693
:1039D000002800D100BE01880A0A0230DF2AFAD18D
:1039E000C9B2820804D3028840880004104300E072
:1039F0000068024A5050039007BD000004050020F3
:103A00000FB403BC0CBCF0B50124E407634000E034
:103A1000F0B50C0DCF0F661E3605891B640503D368
:103A2000C943404200D30131640D03D0661CF60A3D
:103A300007D0E41B00207F00791C89078912803C95
:103A400024031D0DDF0F6E1E36059B1B6D0503D372
:103A5000DB43524200D301336D0D03D06E1CF60AD6
:103A600007D0ED1B00227F007B1C9B079B12803D33
:103A70002D032F1B661B58D4A446202E46DA203770
:103A80001400BC401D00BD40F24033412A43801861
:103A90005941CB0F05D0C943C04300226442504175
:103AA000514162464D0D28D10D0D07D100281FD080
:103AB000241940414941013A0D0DF9D0640006D363
:103AC000013000D30131002C01D140084000013AFF
:103AD0000BD4941CE40A04D112051144DB071944E9
:103AE000F0BDD907204B194300E0D9070020F0BDF5
:103AF0000029DDD1002CDBD1F0BD0132C607400822
:103B0000CD0728434908002EE1D0D9E73C2E29DA19
:103B1000203E40371400BC4000D00124F240144342
:103B20001A00BB401C43D317ACE7AC46202F08DA81
:103B300020360400B4400D00B540F8403941284318
:103B4000A5E73C2F0CDA203F40360400B44000D0FB
:103B50000124F84004430800B1400C43C117EAE7D0
:103B600010001900002494E70000F07FF0B50C0D60
:103B7000661E3605891BE60A6405640D02D0651CC5
:103B8000ED0A04D0002001210905803C2403A4464D
:103B90001C0D671E3F05DB1BE70A6405640D02D0A0
:103BA000651CED0A04D0002201231B05803C240380
:103BB0007740644497B484B296B27443070C7E4352
:103BC000150C6F4380B26843361802D301200004FD
:103BD0003F183004350C00197D41844688B29AB2F2
:103BE00050430C0C62431F0C7C438EB27E439219EF
:103BF00002D301263604A4191604170C361867419F
:103C000001BC81B29AB25143040C62431B0C5C4369
:103C100080B25843121802D3012000042418100463
:103C2000130C401863412D185E410020474106BC2B
:103C300088B293B258430C0C6343120C544389B2BC
:103C400051435B1802D301210904641819041A0CAA
:103C5000091862416D1856410020474118BCF9020D
:103C6000720D1143F0026A0D1043ED020A0D03D1EB
:103C70006D1940414941013B124E9B1B7600B342F6
:103C80000ED26D0007D301300026714166463543E0
:103C900001D1400840001B05C918E4072144F0BDCC
:103CA0000BDA013306D1013004D101314F0D01D0BF
:103CB0004908F2E7E1070020F0BD01363105002098
:103CC000EBE70000FF030000F0B51C0D671E3F0589
:103CD000DB1BE70A6405640D02D0661CF60A04D0FB
:103CE000002201231B05803C2403D0252D0600263D
:103CF000F6432E661E096E66CE0FF619B4464900CD
:103D00004F0D02D07E1CF60A03D000200021403F58
:103D10003F033E1BB600B444013F7F05C91B490861
:103D20002E6F013676089C02950D25437543ED13E1
:103D30007543AD1301356D10F603761B0CB4CC0240
:103D4000450D2C43A2B2B3B25A43270C7B43350C2A
:103D50006F43A4B26C431B1902D3012424043F19FE
:103D60001C041D0CA4187D4124196D41009A91B2C8
:103D7000ACB26143170C7C432B0C5F4392B25A43A5
:103D8000A41802D301221204BF182204230C5218D3
:103D90007B41019C6C431B19520ED9010A4344011B
:103DA000A01A81B2B2B2514303145A43360C734382
:103DB00087B27743D617D21900277E4136049B1964
:103DC0001704160C7F185E417316ED18F3010026D8
:103DD00080337541A90F06D16400690AE8055B0AC2
:103DE000184309D22FE00422944480337541A90A74
:103DF000A8059B0A184326D3404149412404009A50
:103E0000019B0D005543641B4343E41A95B286B2EF
:103E10007543170C7E43030C5F4392B25A43B618A6
:103E200002D301221204BF183204330C52197B4111
:103E300052429C41002C02D40022013051414008E2
:103E4000CA071043490802B06246D7079210084BD0
:103E5000D218084B9A4203D212058918C919F0BD2D
:103E60000020002A01DC3900F0BD01331905F5E717
:103E7000FD030000FE070000624618CA94460029B0
:103E80001ADAC01861415B463B415C46B440524679
:103E9000FA40224344464D4662416B419046994662
:103EA0002B46B3403D41FC401C4352465B46A24179
:103EB000AB4192469B467047C01AA1414B463B41DD
:103EC0004C46B4404246FA40224354465D46624165
:103ED0006B4192469B462B46B3403D41FC401C4300
:103EE00042464B46A241AB4190469946704700205E
:103EF00000217047002200B5203200F004F80800CD
:103F000000BD000000220B15F1D410B5944600F05E
:103F10005DF81414013400DA0021CB17134C20474C
:103F20006244343A0CD40C2A07DA040091409040E1
:103F300052422032D440214310BDD843D94310BD52
:103F4000203207D40C469440524220321141D040D6
:103F5000204310BD0800C917203203D4524220323A
:103F6000104110BD1800190010BD0000213F0010C5
:103F70004A00520D144BD21A13DDFF2A1EDAD20565
:103F8000CB0FDB071A43C300400F0903490A08435C
:103F900010435B0001D301D0013070474308FBD2CE
:103FA000704702D0C80FC00770470A0312130132CE
:103FB000F8D1420F072AF5D1012200E0FF22C80FF5
:103FC00000028018C0057047800300000A0DCC0F66
:103FD000531E1B05C91A520503D3C943404200D3DF
:103FE0000131520D03D0531CDB0A07D0121B0020F5
:103FF0006400611C89078912803A1203014BD21AAE
:1040000070470000FF03000051434343C9188C462A
:10401000110C83B24B4310B4040C614392B280B2D2
:10402000504362431C041B0C001910BC594113047B
:10403000120CC018514161447047000007B5484058
:104040004140484001E0C04607B54200120E03D08F
:10405000FF2A03D1420218D8C00DC0054A00120E33
:1040600003D0FF2A03D14A020FD8C90DC905012286
:10407000414005D4414001D5814207BD884207BD7A
:104080000143491801D0C043001807BD00B5FFF730
:10409000DBFF01D0002000BD012000BD00239C46B5
:1040A000014B5B6A1847000004060020034BDB6FDE
:1040B000FC4618477CDFF141001000000406002098
:1040C00070B513231D782A48FFF7A2F80400012DCC
:1040D00011D0012D09DDA31E1B789B007F2B40DD35
:1040E00080222100234800F0A9F82348FFF788F830
:1040F000224B186070BD542201001E4800F09EF84B
:104100001F4B1A881F4B9A421CD1A7239B011A8868
:104110001D4B9A4216D11D4B1A881D4B9A4211D144
:104120001C4B1A8894239B019A420BD11A4B1A8874
:104130001A4B9A4206D11A4B1A681A4B9A4201D16D
:10414000152307E01848FDF701FC9900094A1748B4
:10415000885001331F2BF8D9144A064B1A62DA61D2
:10416000B7E7134B134A42211348FDF7D1FBC04672
:1041700053460000040600204C33000004070020D2
:10418000EE290000C40F0000C20D0000962B0000B5
:10419000C0B50000182B0000CC2A000010B50000AC
:1041A000FC2C000051ED8764684B0010BD410010ED
:1041B00050520010CC5200108452001007B56046D7
:1041C000002800D100BE01880A0A0230DF2AFAD195
:1041D000C9B2820804D3028840880004104300E07A
:1041E0000068024A5050039007BD000004060020FA
:1041F000C30FDB0741000A0E07D0FF2A08D00909C8
:10420000054A891819434007704719000020704774
:104210000249C918FAE70000000000380000F07FEA
:1042200001480421014B1847F00200202132001000
:10423000014B1B6818470000F0020020014B5B682F
:1042400018470000F0020020F8B507000D00160026
:10425000437C002B02D0002400200CE003681100F6
:104260002800984729E03B7C10E0022116483B6873
:104270009847601C0134B44214DA002CF3DD2B198A
:10428000013B1B780D3B59425941CBB22A5D0A2AAA
:10429000F0D1002BEED1A042E7DA211A28183B68B2
:1042A0009847E2E7B04209DB002E06DDAD19013D7B
:1042B0002B780D3B594259413974F8BD311A2818F1
:1042C0003B689847F0E7C0464453001070B50500BE
:1042D0000368002B16D00C4B1C6805E0291D2A68CA
:1042E0002000FFF7B1FFE468002C09D02368002B01
:1042F000F9D0064B1B68002BF0D09C42F3D1EDE7C0
:1043000000232B6070BDC046B4040020B804002018
:1043100070B505000C000B68802B05D023685A1C73
:104320002260E418257170BD0800FFF7CFFFF5E7A4
:1043300010B582B0D0231B0600241C5701A90748E2
:1043400000F0EEF8002806D1019B9C4203D0034800
:1043500000F0EEF8012002B010BDC04600030020BE
:1043600010B5024800F0C4F810BDC046000300209C
:10437000F0B585B001900D001600FFF7D9FF0700DA
:104380006B1C02D0174B1C680CE0019800F07AF807
:104390000500F7E72A0001992000FFF755FF002EDE
:1043A0000CD1E468002C12D02368002BF9D00E4BFE
:1043B0001B68002BEED09C42F3D1EBE702ABD91D7A
:1043C0000A230B7001222000FFF73EFFE9E7002FD0
:1043D00004D1681E8541E8B205B0F0BDFFF7C0FF0B
:1043E000F7E7C046B4040020B804002010B5064B1F
:1043F0001C6800E0E468002C04D06368002BF9D04E
:104400009847F7E710BDC046B404002070B505001A
:1044100000F038F80400012201002800FFF7A8FF8F
:10442000FFF7E4FF200070BD70B5A2B004000E00DD
:10443000FFF77EFF05008422002101A8FFF7F8FEA8
:104440003300220001A90848FEF7C2FE040001A8BB
:10445000FFF73CFFFFF7CAFF002D02D1200022B07A
:1044600070BDFFF77DFFF9E7114300100FB400B5F1
:1044700083B004A901C90191FFF7D6FF03B008BCBE
:1044800004B0184710B5830725D00378002B24D03B
:104490000300032102E01A78002A1AD001330B42EC
:1044A000F9D119680E4A0F4C8A188A43224206D164
:1044B000043319680A4A8A188A432242F8D01A003B
:1044C0001B78002B03D0013211780029FBD1101A80
:1044D00010BD181AFCE70300E3E70020F8E7C04628
:1044E000FFFEFEFE80808080F8B5C0460000000020
:1044F00001B40248844601BC604700BFB1010020FE
:1045000001B40248844601BC604700BF4502002058
:1045100001B40248844601BC604700BF4502002048
:1045200001B40248844601BC604700BF5501002029
:1045300001B40248844601BC604700BFC1000020AE
:1045400053797374656D20636C6F636B206F6620A5
:104550002575206B487A2063616E6E6F74206265EA
:104560002065786163746C7920616368696576653C
:10457000640000007570646174655F75735F7369D2
:104580006E63655F626F6F740000000070685F6744
:1045900065745F6E6F64650070685F6164645F631B
:1045A00068696C645F6E6F646500000070685F69C5
:1045B0006E736572745F6E6F6465000070685F662D
:1045C0007265655F6E6F6465000000006765745F0B
:1045D000656E7472790000006765745F656E747251
:1045E000795F69645F68696768000000616C617287
:1045F0006D5F706F6F6C5F6765745F646566617532
:104600006C7400006164645F616C61726D5F756EF3
:104610006465725F6C6F636B00000000616C6172B7
:104620006D5F706F6F6C5F616C61726D5F63616C09
:104630006C6261636B0000002170685F636F6E7471
:1046400061696E735F6E6F646528706F6F6C2D3E6D
:10465000686561702C2072657573655F69642900F7
:1046600075735F73696E63655F626F6F74203C3D45
:1046700020494E5436345F4D415800002F686F6D0D
:10468000652F6D69636861656C2F5069636F2F706A
:1046900069636F2D73646B2F7372632F636F6D6D1E
:1046A0006F6E2F7069636F5F626173652F696E63F0
:1046B0006C7564652F7069636F2F74797065732EE4
:1046C0006800000072656D6F7665645F6964203D07
:1046D0003D206E6578745F696400000063616C6CF6
:1046E0006261636B00000000706F6F6C2D3E616C47
:1046F00061726D5F696E5F70726F67726573732050
:104700003D3D206D616B655F7075626C69635F69CB
:10471000642869645F686967682C206E6578745FD7
:10472000696429006964202626202170685F636F10
:104730006E7461696E735F6E6F6465286865617021
:104740002C20696429000000696420262620696401
:10475000203C3D20706F6F6C2D3E686561702D3E72
:104760006D61785F6E6F646573000000256C6C642A
:104770002028686920253032782900006465666148
:10478000756C745F616C61726D5F706F6F6C5F6987
:104790006E697469616C697A65642829000000009B
:1047A0006964202626206964203C3D20686561708C
:1047B0002D3E6D61785F6E6F646573002F686F6D5D
:1047C000652F6D69636861656C2F5069636F2F7029
:1047D00069636F2D73646B2F7372632F636F6D6DDD
:1047E0006F6E2F7069636F5F7574696C2F696E638C
:1047F0006C7564652F7069636F2F7574696C2F70A9
:10480000686561702E680000706172656E745F6922
:10481000640000006368696C645F69640000000004
:10482000706172656E745F696420213D2063686900
:104830006C645F696400000072742D3E616C61728B
:104840006D5F6964203D3D20696400002F686F6DD5
:10485000652F6D69636861656C2F5069636F2F7098
:1048600069636F2D73646B2F7372632F636F6D6D4C
:104870006F6E2F7069636F5F74696D652F74696DFA
:10488000652E6300417474656D7074656420746F87
:1048900020736C65657020696E73696465206F664E
:1048A00020616E20657863657074696F6E20686141
:1048B0006E646C65723B2075736520627573795FF9
:1048C0007761697420696620796F75206D757374DE
:1048D0000000000068617264776172655F616C61FD
:1048E000726D5F7365745F74617267657400000058
:1048F000486172647761726520616C61726D202518
:104900006420616C726561647920636C61696D65B6
:104910006400000074696D65725F68772D3E696E92
:1049200074732026203175203C3C20616C61726DCF
:104930005F6E756D000000002F686F6D652F6D69EB
:10494000636861656C2F5069636F2F7069636F2DA9
:1049500073646B2F7372632F7270325F636F6D6D50
:104960006F6E2F68617264776172655F74696D65DF
:10497000722F74696D65722E630000006D75746529
:10498000785F656E7465725F626C6F636B696E678A
:10499000000000006D757465785F657869740000CB
:1049A0006D74782D3E636F72652E7370696E5F6CE7
:1049B0006F636B002F686F6D652F6D69636861654C
:1049C0006C2F5069636F2F7069636F2D73646B2F49
:1049D0007372632F636F6D6D6F6E2F7069636F5F9E
:1049E00073796E632F6D757465782E630000000017
:1049F0006D74782D3E726563757273696F6E5F7347
:104A000074617465203D3D204D41585F52454355CA
:104A10005253494F4E5F5354415445006D74782DA5
:104A20003E6F776E657220213D204C4F434B5F49AE
:104A30004E56414C49445F4F574E45525F494400E2
:104A40006D74782D3E726563757273696F6E5F73F6
:104A5000746174650000000070685F6765745F6E64
:104A60006F64650070685F6164645F6368696C644B
:104A70005F6E6F646500000070685F72656D6F76D1
:104A8000655F616E795F68656164000070685F7280
:104A9000656D6F76655F616E645F667265655F6E9A
:104AA0006F646500666F756E640000006E65775F09
:104AB0007375625F7472656520213D206865617061
:104AC0002D3E726F6F745F6964000000726F6F74C7
:104AD0005F6964002F686F6D652F6D69636861653C
:104AE0006C2F5069636F2F7069636F2D73646B2F28
:104AF0007372632F636F6D6D6F6E2F7069636F5F7D
:104B00007574696C2F70686561702E630000000019
:104B10002170685F6765745F6E6F646528686561A2
:104B2000702C20726F6F745F6964292D3E73696207
:104B30006C696E67000000002170685F6765745FD4
:104B40006E6F646528686561702C20726F6F745F8A
:104B50006964292D3E706172656E74002C20667543
:104B60006E6374696F6E3A200000000061737365B4
:104B70007274696F6E2022257322206661696C65EC
:104B8000643A2066696C6520222573222C206C69AA
:104B90006E65202564257325730A00000A2A2A2AD7
:104BA0002050414E4943202A2A2A0A000A000000C8
:104BB000636C6F636B5F636F6E66696775726500C8
:104BC0007372635F66726571203E3D206672657127
:104BD000000000002F686F6D652F6D696368616567
:104BE0006C2F5069636F2F7069636F2D73646B2F27
:104BF0007372632F7270325F636F6D6D6F6E2F68AB
:104C0000617264776172655F636C6F636B732F634E
:104C10006C6F636B732E63006972715F7365745F91
:104C20006578636C75736976655F68616E646C65E1
:104C3000720000006D616B655F6272616E63680097
:104C4000696E736572745F6272616E63685F616ED4
:104C5000645F6C696E6B00007265736F6C76655F84
:104C60006272616E636800006972715F72656D6F78
:104C700076655F68616E646C657200006972715F71
:104C80006164645F7461696C5F746F5F66726565AF
:104C90005F6C6973740000006972715F68616E64B3
:104CA00065725F636861696E5F667265655F736C8C
:104CB0006F745F68656164203E3D20300000000035
:104CC000767461626C655F68616E646C6572203DCC
:104CD0003D205F5F756E68616E646C65645F7573BF
:104CE00065725F6972710000212828282875696E35
:104CF000747074725F7429767461626C655F686148
:104D00006E646C657229202D20282875696E747078
:104D100074725F74296972715F68616E646C657228
:104D20005F636861696E5F736C6F747329202D20F7
:104D300031292573697A656F662873747275637497
:104D4000206972715F68616E646C65725F6368612F
:104D5000696E5F736C6F74292900000030783163CD
:104D6000203D3D20282A696E7374293E3E313175FD
:104D70000000000069735F7368617265645F697247
:104D8000715F7261775F68616E646C657228736CC5
:104D90006F745F68616E646C657229006578636525
:104DA0007074696F6E0000002165786365707469C6
:104DB0006F6E207C7C20657863657074696F6E20EF
:104DC0003D3D206E756D202B2031360066616C7381
:104DD0006500000063757272656E74203D3D205F52
:104DE0005F756E68616E646C65645F757365725F34
:104DF000697271207C7C2063757272656E74203DCF
:104E00003D2068616E646C65720000002128646555
:104E10006C7461203E3E2031317529002F686F6D22
:104E2000652F6D69636861656C2F5069636F2F70C2
:104E300069636F2D73646B2F7372632F7270325FAF
:104E4000636F6D6D6F6E2F68617264776172655FFD
:104E50006972712F6972712E63000000706C6C5F53
:104E6000696E6974000000006662646976203E3DE8
:104E7000203136202626206662646976203C3D205B
:104E8000333230002F686F6D652F6D69636861651F
:104E90006C2F5069636F2F7069636F2D73646B2F74
:104EA0007372632F7270325F636F6D6D6F6E2F68F8
:104EB000617264776172655F706C6C2F706C6C2EC0
:104EC0006300000028706F73745F64697631203E60
:104ED0003D203120262620706F73745F646976311F
:104EE000203C3D2037292026262028706F73745FD0
:104EF00064697632203E3D203120262620706F7373
:104F0000745F64697632203C3D2037290000000040
:104F1000706F73745F64697632203C3D20706F73EC
:104F2000745F6469763100007265665F6D687A202F
:104F30003C3D202876636F5F66726571202F2031BB
:104F4000362900003C2C0010542C0010542C00106A
:104F5000482C0010542C0010542C0010542C00101D
:104F6000542C0010542C0010542C0010542C001001
:104F7000302C0010542C0010242C0010542C001045
:104F8000542C0010022C00100E2D0010342D001097
:104F90004C2D0010342D0010EE2C0010342D00107C
:104FA000342D0010342D0010342D0010342D00103D
:104FB000342D0010342D00102A2D0010342D001037
:104FC000342D0010342D0010342D0010342D00101D
:104FD000582D00107E3100109431001094310010D3
:104FE000943100109431001094310010943100106D
:104FF000943100109431001094310010943100105D
:10500000943100109431001094310010943100104C
:10501000943100109431001094310010943100103C
:10502000943100109431001094310010943100102C
:10503000943100109431001094310010943100101C
:10504000943100109431001094310010943100100C
:1050500094310010BC2F00107E2F0010BC2F0010C8
:1050600094310010943100109431001094310010EC
:1050700094310010943100109431001094310010DC
:1050800094310010943100109431001094310010CC
:1050900094310010943100109431001094310010BC
:1050A000642D0010943100109431001094310010E0
:1050B000943100109431001094310010943100109C
:1050C0009431001094310010642D00100E30001047
:1050D000642D0010BC2F00107E2F0010BC2F00107C
:1050E00094310010642D00109431001094310010A0
:1050F000943100109431001094310010642D001090
:105100004A31001094310010943100107E300010AC
:1051100094310010642D001094310010943100106F
:10512000642D0010666E692B00000000666E690039
:105130006E616E00666E692D0000000000000000C8
:10514000000000000000F03F0000000000002440CC
:1051500000000000000059400000000000408F40A7
:10516000000000000088C34000000000006AF84012
:105170000000000080842E4100000000D012634136
:105180000000000084D797410000000065CDCD41AC
:105190002A282875696E74385F74202A29282828DF
:1051A000766F6964202A29726F6D5F646174615F34
:1051B0006C6F6F6B757028726F6D5F7461626C6578
:1051C0005F636F6465282753272C202746272929EA
:1051D000292D322929202A2034203E3D2053465FA4
:1051E0005441424C455F56325F53495A45000000D6
:1051F0002F686F6D652F6D69636861656C2F5069ED
:10520000636F2F7069636F2D73646B2F7372632FDD
:105210007270325F636F6D6D6F6E2F7069636F5F59
:10522000646F75626C652F646F75626C655F696E23
:1052300069745F726F6D2E63000000005F5F6165CF
:105240006162695F646F75626C655F696E69740045
:105250002A282875696E74385F74202A2928726F8D
:105260006D5F7461626C652D322929202A203420FB
:105270003E3D2053465F5441424C455F56325F539A
:10528000495A45002F686F6D652F6D6963686165C8
:105290006C2F5069636F2F7069636F2D73646B2F70
:1052A0007372632F7270325F636F6D6D6F6E2F70EC
:1052B00069636F5F666C6F61742F666C6F61745F9A
:1052C000696E69745F726F6D2E6300005F5F616568
:1052D0006162695F666C6F61745F696E697400001A
:1052E00006005250BBFF3CB624530010060052503B
:1052F000E182887F0C53001006005250D3F07542B3
:10530000045300104465627567000000626F6F749B
:10531000325F77323571303830000000312E322E56
:10532000300000007069636F000000006261736903
:10533000635F7377656570004A756C203139203280
:08534000303231000D0A0000BB
:10534800B4020010A80200109C020010E0520010E5
:0C53580090020010EC520010F8520010FF
:1053640010B50368002B1CD11E4B1F4A1A211F487D
:1053740000F0BAF802714379002B2AD0FF2B02D136
:10538400013B437125E01A4B174A2121174800F0CD
:10539400ABF80368BFF35F8F00221A6081F31088B3
:1053A40020BF0268EFF3108172B61368002BFCD0A3
:1053B400BFF35F8FD0231B0600229A560423C356E3
:1053C4005C1CD7D09A42E4D14379012BE1D9013B4B
:1053D40043710368BFF35F8F00221A6081F3108862
:1053E40010BDC046A04900107C490010B44900100B
:1053F400F049001030B50268EFF3108472B61368F8
:10540400002BFCD0BFF35F8FD0231B0600229A56DB
:105414000423C3565D1C0ED09A420FD0002914D029
:105424000B6000210368BFF35F8F00221A6084F3CE
:105434001088080030BD02710121F3E74279012A86
:10544400ECD9013A42710121ECE70021EAE70000BE
:1054540010B50268EFF3108172B61368002BFCD00C
:10546400BFF35F8F0423C356013311D04379002B5C
:1054740014D00133DBB24371002B1AD0FF2B1ED0A2
:105484000368BFF35F8F00221A6081F3108810BD98
:10549400104B114A6321114800F026F8FF330371C1
:1054A4000368BFF35F8F00221A6081F3108840BF46
:1054B400EDE70B4B084A6921084800F015F8037121
:1054C4000368BFF35F8F00221A6081F3108840BF26
:1054D400DDE7C0461C4A001094490010B44900108E
:1054E400404A00107047C04601B40248844601BCDB
:1054F400604700BF1119001012131415161700800D
:10550400100000007C0200200000000020030020A6
:105514007404002000000000000000008404002047
:105524000000000000000000100000000000000067
:105534000000010000000000000000000000020064
:105544000000000000000000000003000000000054
:10555400000000000000FF000000000000B54868E3
:1055640001318E460047704609380149884700BD1D
:10557400A51E001000000000000000000000000054
:10558400503300004C330000543300005233000009
:105594004D5300004D4300005334000043340000D9
:1055A400000000000000000021420010F131001052
:0C55B40015390010C14000103D0300102C
:04000005100001E9FD
:00000001FF
